:020000040800F2
:1000000000800020E5150008711500087315000830
:100010007515000877150008791500080000000024
:100020000000000000000000000000007B15000838
:100030007D150008000000007F15000881150008EC
:100040003516000835160008351600083516000864
:100050003516000835160008351600083516000854
:100060003516000835160008351600083516000844
:100070003516000835160008351600083516000834
:100080003516000800000000351600083516000877
:1000900085150008351600083516000835160008C5
:1000A0003516000835160008351600083516000804
:1000B00035160008351600083516000835160008F4
:1000C00035160008351600083516000835160008E4
:1000D00035160008351600083516000835160008D4
:1000E00035160008351600083516000835160008C4
:1000F0003516000835160008351600080000000007
:100100000000000035160008000000003516000849
:1001100035160008000000003516000835160008E6
:100120003516000835160008351600083516000883
:100130003516000800000000000000003516000819
:100140003516000835160008000000000000000009
:10015000000000000000000000000000000000009F
:10016000000000000000000000000000351600083C
:10017000351600080000000000000000000000002C
:10018000000000003516000800000000000000001C
:10019000000000000000000000000000000000005F
:1001A00000000000000000003516000835160008A9
:1001B0003516000835160008351600080000000046
:1001C00000000000351600080000000000000000DC
:0801D000351600083516000881
:1001E00010B5054C237833B9044B13B10448AFF371
:1001F00000800123237010BDEC01002000000000EE
:100200004C5E000808B5034B1BB103490348AFF32C
:10021000008008BD00000000F00100204C5E0008D6
:10022000034613F8012B002AFBD1181A0138704736
:1002300001F0FF01102A2BDB10F0070F08D010F897
:10024000013B013A8B422DD010F0070F42B3F6D19B
:10025000F0B441EA012141EA014122F007047FF0B4
:1002600000070023F0E80256083C85EA010586EA0B
:10027000010685FA47F5A3FA87F586FA47F6A5FA47
:1002800087F68EB9EED1F0BC01F0FF0102F0070253
:1002900032B110F8013B013A83EA010313B1F8D1FE
:1002A0000020704701387047002D06BF35460338DF
:1002B000073815F0010F07D1013015F4807F02BF18
:1002C000013015F4C03F0130F0BC0138704700BF69
:1002D00053B94AB9002908BF00281CBF4FF0FF31AD
:1002E0004FF0FF3000F074B9ADF1080C6DE904CEA9
:1002F00000F006F8DDF804E0DDE9022304B0704701
:100300002DE9F047089D04468E46002B4DD18A42C8
:10031000944669D9B2FA82F252B101FA02F3C2F1FB
:10032000200120FA01F10CFA02FC41EA030E94408C
:100330004FEA1C48210CBEFBF8F61FFA8CF708FBAD
:1003400016E341EA034306FB07F199420AD91CEB85
:10035000030306F1FF3080F01F81994240F21C81B7
:10036000023E63445B1AA4B2B3FBF8F008FB1033FF
:1003700044EA034400FB07F7A7420AD91CEB040434
:1003800000F1FF3380F00A81A74240F20781644404
:10039000023840EA0640E41B00261DB1D440002389
:1003A000C5E900433146BDE8F0878B4209D9002DED
:1003B00000F0EF800026C5E9000130463146BDE877
:1003C000F087B3FA83F6002E4AD18B4202D38242E1
:1003D00000F2F980841A61EB030301209E46002D90
:1003E000E0D0C5E9004EDDE702B9FFDEB2FA82F2E5
:1003F000002A40F09280A1EB0C014FEA1C471FFA43
:100400008CFE0126200CB1FBF7F307FB131140EA29
:1004100001410EFB03F0884208D91CEB010103F1F6
:10042000FF3802D2884200F2CB804346091AA4B2B8
:10043000B1FBF7F007FB101144EA01440EFB00FE8C
:10044000A64508D91CEB040400F1FF3102D2A645F1
:1004500000F2BB800846A4EB0E0440EA03409CE790
:10046000C6F12007B34022FA07FC4CEA030C20FA3D
:1004700007F401FA06F31C43F9404FEA1C4900FA5D
:1004800006F3B1FBF9F8200C1FFA8CFE09FB1811DA
:1004900040EA014108FB0EF0884202FA06F20BD94D
:1004A0001CEB010108F1FF3A80F08880884240F29D
:1004B0008580A8F102086144091AA4B2B1FBF9F0E1
:1004C00009FB101144EA014100FB0EFE8E4508D9DC
:1004D0001CEB010100F1FF346CD28E456AD9023861
:1004E000614440EA0840A0FB0294A1EB0E01A14246
:1004F000C846A64656D353D05DB1B3EB080261EBB4
:100500000E0101FA07F722FA06F3F1401F43C5E98D
:10051000007100263146BDE8F087C2F12003D840C3
:100520000CFA02FC21FA03F3914001434FEA1C4705
:100530001FFA8CFEB3FBF7F007FB10360B0C43EAF7
:10054000064300FB0EF69E4204FA02F408D91CEBA7
:10055000030300F1FF382FD29E422DD902386344A5
:100560009B1B89B2B3FBF7F607FB163341EA034145
:1005700006FB0EF38B4208D91CEB010106F1FF3894
:1005800016D28B4214D9023E6144C91A46EA00468B
:1005900038E72E46284605E70646E3E61846F8E61D
:1005A0004B45A9D2B9EB020864EB0C0E0138A3E766
:1005B0004646EAE7204694E74046D1E7D0467BE747
:1005C000023B614432E7304609E76444023842E7BF
:1005D000704700BF054BDA6C0243DA64DB6C82B013
:1005E00018400190019B02B0704700BF001002400C
:1005F00010B594B03822002106A804F095FF14220B
:10060000002101A804F090FF002002F0EFF82B2257
:100610004FF48033CDE906234FF480714023CDE9B8
:1006200009130123CDE90B3303240223552206A825
:10063000CDE90D34CDE91023CDE912330F9302F04B
:1006400037F908B172B6FEE70421CDE903000F23A4
:1006500005900DEB0100CDE9013402F06FFB08B10C
:1006600072B6FEE702F05EFC14B010BD2DE9F04F4B
:10067000BC4BDFB01EAA03F1280518685968144660
:1006800003C40833AB422246F7D11B7823705722AC
:1006900000210DF1A10004F047FF00F0F3FFFFF788
:1006A000A7FF182200213EA804F03EFF0420FFF718
:1006B00091FF2020FFF78EFF0120FFF78BFF022024
:1006C000FFF788FFA84BDFF8B092A7484FF400521D
:1006D0004FF090469A624FF400754FF400430024A7
:1006E000B3620127C9F828503EA93E92CDE93F7474
:1006F000CDE9414402F05CFE4FF400433EA9304690
:10070000CDE93E37CDE94044429402F051FE4FF42A
:1007100080633EA994484297CDE93E3402F048FEFA
:100720003EA94846CDE93E57CDE940448F4D42941D
:1007300002F03EFE8E4B2B60A3F17563A3F57A2386
:10074000A3F605432846C5E90134C5E90374C5E9A4
:100750000544C5E9074401F0FDF8014608B172B649
:10076000FEE7284601F047F9014608B172B6FEE7F8
:10077000284601F066F9044608B172B6FEE7DFF8D4
:10078000FC81182201463EA804F0CEFED8F85C3069
:1007900043F48073C8F85C30D8F85C3003F480739D
:1007A00005930220059B0325FFF714FF3EA91023A4
:1007B0004846CDE93E354FF0400A429402F0F8FD3C
:1007C0003EA948464294CDE93EA502F0F1FD2146FE
:1007D00018220DEB0A00CDE908440A9404F0A4FEA7
:1007E000214610220BA804F09FFE2146182216A8CD
:1007F00004F09AFE214652463FA804F095FE4FF4BD
:1008000000433E933EA84FF000534D9302F092FBFD
:10081000044608B172B6FEE74FF40050FFF7DAFE67
:100820003846FFF7D7FE0220FFF7D4FE16A9304660
:100830004FF0020B1A94CDE9167502F0B9FD16A916
:1008400030461A94CDE916B502F0B2FD042316A97C
:100850003046CDE916351A9402F0AAFD082316A9F0
:100860003046CDE916351A9402F0A2FD16A9484685
:100870001A94CDE9167502F09BFD16A948461A9404
:10088000CDE916B502F094FD08A94FF0A040CDE9DE
:1008900008440A9402F052FD10A94FF0A040CDE99F
:1008A0001044CDE91244CDE9144402F05DFD4FF04F
:1008B000A0430BA9D3F8C0202E4822F47F5222F087
:1008C0003F02C3F8C0201A6922F480321A611A6903
:1008D00022F4806222F003021A614FF44032CDE923
:1008E0000B2402F007FD4FF0A04321469A6822F046
:1008F000204222F03F029A609A6822F0104222F0D1
:100900003F0242F080529A601A6B22F4F86242F081
:1009100040021A635A6922F038025A61D3F8B020B3
:1009200042EA0B02C3F8B02010A81822CDE90B440C
:100930000D9404F0F9FD2146182216A804F0F4FDE8
:10094000214652463FA804F0EFFD4FF400433E938A
:100950003EA84FF000534D9302F0ECFA044678B1F4
:1009600072B6FEE7645E0008000800480802002036
:1009700000540040000300500004004800100240F2
:100980004FF40050FFF726FE3846FFF723FE042001
:10099000FFF720FE5846FFF71DFE16A93046CDE9A9
:1009A00016751A9402F004FD16A93046CDE916B565
:1009B0001A9402F0FDFC102316A93046CDE9163535
:1009C0001A94202702F0F4FC16A93046CDE91675DA
:1009D0001A9402F0EDFC16A93046CDE916A51A943A
:1009E00002F0E6FC802216A93046CDE916251A94BD
:1009F00002F0DEFC102316A96C481A94CDE91635D6
:100A000002F0D6FC0423CDE91635694D1A9416A9D7
:100A1000484602F0CDFC0BA92846CDE90B440D94C5
:100A200002F08CFC10A92846CDE91044CDE912440F
:100A3000CDE9144402F098FCD5F8C02022F47F528E
:100A400022F03F02C5F8C0202A6922F480322A61D0
:100A50002A6922F4806222F003022A61AA6822F045
:100A6000204222F03F02AA60AA6822F0104222F03F
:100A70003F024FF0A04342F08052AA60D3F83021E9
:100A800022F4F86242F48862C3F83021494A53687C
:100A900023F460035360D5F8B03023F40033C5F875
:100AA000B03021461C2216A804F03EFD2146182233
:100AB00010A804F039FD214652463FA804F034FD49
:100AC0003EA83E9702F036FA044608B172B6FEE739
:100AD000D8F85C3043F00103C8F85C30D8F85C30DB
:100AE00003F0010306935846069BFFF773FD4FF48E
:100AF0008063CDE9103B10A9082348461593CDE942
:100B00001244149402F054FC4FF40063CDE9103BFE
:100B100010A9082348461593CDE91244149402F015
:100B200047FC4FF4E133CDE91734234816940C23E6
:100B300016A9CDE91944CDE91B3402F0D5FC1F4AB2
:100B400052E8003F23F0604342E800310029F7D12A
:100B500052E8003F23F0606342E800310029F7D1FA
:100B6000154B1A6822F000521A601A6842F001020E
:100B70001A60DA699702FCD5DA695602F9D510488D
:100B8000104CFF227F250023C0E902524FF0804223
:100B9000C0E90043C0E90433C0E90723836102F0E0
:100BA00063FB044680B172B6FEE700BF0008004850
:100BB00000010050140100500080004008800040F7
:100BC0005402002000280040014628223EA804F0DC
:100BD000ABFC1822214616A804F0A6FCD8F8583021
:100BE000D84E43F40043C8F85830D8F8583003F4CE
:100BF000004307930420079BFFF7ECFC0220FFF75C
:100C0000E9FC02254FF0060B4FF4006316A9CE480D
:100C1000CDF86CB0CDE91635CDE918441A9402F040
:100C2000C7FB082316A9C948CDE91635CDE91A4BEB
:100C30002027CDE9184402F0BBFB16A9C348CDE933
:100C40001675CDE91A4BCDE9184402F0B1FB4FF40B
:100C500082714FF44073CDE93F134FF0100A4FF407
:100C60000073CDE9433A3EA9072330464793CDE9C7
:100C70004144CDE945443E9402F008FD736823F0F9
:100C800010037360736843F00803736021461422F5
:100C90000BA804F049FC3A46214616A804F044FC8F
:100CA000214630223EA804F03FFC1822214610A81D
:100CB00004F03AFCD8F8603043F40063C8F86030C0
:100CC000D8F8603003F4006308932846089BFFF7C8
:100CD00081FC4FF48053CDE910359D4D9B48CDF8F4
:100CE00054B04FF0010910A9CDE91394129402F009
:100CF0005FFB4FF6FF730BA92846CDE90D34ADF825
:100D00002C400C940F9402F0FBFC2B68DFF848B2E7
:100D100006F5644623F080032B60D6F8183C43F0B8
:100D20000803C6F8183C16AA602349462846CDE9B0
:100D30001634CDE91844CDE91A44CDE91C4402F03B
:100D40003BFDD6F8183C23F00403C6F8183CD6F84F
:100D5000183C43F40063C6F8183C16AA51462846CE
:100D600002F02AFDD6F8183C23F48063C6F8183C3C
:100D7000DBF8043043F00803CBF8043016AA4FF434
:100D80008071284602F018FDDBF8043023F00403DC
:100D9000CBF804306B6823F0007323F070036B60B2
:100DA0006B6823F470036B60AB6823F08003AB6067
:100DB000D6F8602C99FAA9F30BB1B3FA83F74FF484
:100DC000007B07F01F070BFA07F722EA07074FF02F
:100DD000010A9AFAAAF34FF480530024C6F8607C03
:100DE0003EA94FF40057ADF80631594840944FF0F2
:100DF0000073CDE94634CDE93E44CDE94274CDE9F6
:100E00004444CDE948448DF8044102F069FE0220D3
:100E1000FFF7E0FB50460225FFF7DCFB062610A992
:100E20004A481596CDE91154CDE91344109702F0C4
:100E3000BFFA4FF4804310A94448CDE91035CDE9FD
:100E400014464FF40049CDE9124402F0B1FA0423EC
:100E500010A93E481494CDE91095CDE9124415939C
:100E600002F0A6FA4FF4807310A94FF09040CDE93C
:100E70001035CDE91446CDE9124402F099FA10A9D3
:100E80004FF09040CDE910B5CDE91446CDE91244BC
:100E900002F08EFA4FF4806210A94FF09040CDE935
:100EA0001025CDE91446CDE9124402F081FA21461D
:100EB000142210A804F038FB214620223EA804F09A
:100EC00033FB2146182216A804F02EFBD8F8582030
:100ED000204E2A43C8F85820D8F858202A400B92B0
:100EE0004FF6FF7B10A930460B9ACDF848B002F0C0
:100EF00007FC32684FF0804822F080023260D8F858
:100F0000182442F00802C8F818246022CDE93E24D3
:100F100051463EAA3046CDE94044429402F04CFC92
:100F2000D8F8182422F00402C8F81824726822F0B5
:100F3000007222F070027260B268042322F0800214
:100F400018460BE0003C0040000800480004004840
:100F5000002C014000040040182C0140B260FFF753
:100F600039FB4026CDE91A45CDE91844C94CCDE9F5
:100F700016654FF0904516A9204602F019FA04F0C4
:100F800073F8A7614FF4FA70C5F8189000F09CFB55
:100F9000C5F8289041F28830A76200F095FBBE4B5F
:100FA000B3F8E0305B4500F02F82BC4BBC4CD3F86B
:100FB000E03504EA8324B4F5002F00F02982B4F56B
:100FC000802F14BF35468025B649B74E3EA804F0A1
:100FD000E7FA3EA8FFF724F901463EA804F094F88A
:100FE000322000F071FBB1493EA804F0D9FA3EA8C6
:100FF000FFF716F901463EA804F086F8322000F00B
:1010000063FB04230822CDE9023201930223A84A9C
:101010000093802101233EA804F08EFA3EA8FFF73A
:10102000FFF801463EA804F06FF8322000F04CFBB8
:101030003368A04AC3F30B0380213EA804F07CFA76
:101040003EA8FFF7EDF801463EA804F05DF8322017
:1010500000F03AFB3368984A134092FAA2F2B2FACF
:1010600082F202F01F02D3408021944A8B4E3EA8A8
:1010700004F062FA3EA8FFF7D3F801463EA804F058
:1010800043F8322000F020FBD6F890358C4A8021BE
:101090003EA804F051FA3EA8FFF7C2F801463EA868
:1010A00004F032F8322000F00FFBD6F89475854A30
:1010B000D6F89865FBB280213EA804F03DFA3EA820
:1010C000FFF7AEF801463EA804F01EF8322000F00B
:1010D000FBFA7D4A334680213EA804F02DFA3EA853
:1010E000FFF79EF801463EA804F00EF8322000F00B
:1010F000EBFA764A3B0A80213EA804F01DFA3EA88E
:10110000FFF78EF801463EA803F0FEFF322000F004
:10111000DBFA631E6E4A0093802123463EA804F04A
:101120000BFA3EA8FFF77CF801463EA803F0ECFF5F
:10113000322000F0C9FA2B46664A80213EA804F00E
:10114000FBF93EA8FFF76CF801463EA803F0DCFF70
:10115000322000F0B9FA60493EA804F021FA3EA816
:10116000FFF75EF801463EA803F0CEFF322000F004
:10117000ABFA5A4B109300F0A1FA594B9FED597AF4
:101180000546DDED107A67EE877A013BCDED107AEA
:10119000F7D100F093FA524C534A401B04FB00F580
:1011A0002B4680213EA804F0C7F93EA8FFF738F887
:1011B00001463EA803F0A8FF322000F085FAB5FBF7
:1011C000F4F34A4A80213EA804F0B6F93EA8FFF79E
:1011D00027F801463EA803F097FF322000F074FA8A
:1011E00000F06CFA9FED427A0546DDED106AC6EE1E
:1011F000877A013CCDED107AF7D100F05FFA384CD8
:101200003C4A401B04FB00F52B4680213EA804F01D
:1012100093F93EA8FFF704F801463EA803F074FFD7
:10122000322000F051FAB5FBF4F3334A80213EA896
:1012300004F082F93EA8FEF7F3FF01463EA803F052
:1012400063FF322000F040FA0223169300F036FAD2
:101250000546169B013C4FEA43031693F9D100F073
:101260002DFA1F4C254A401B04FB00F52B4680211C
:101270003EA804F061F93EA8FEF7D2FF01463EA861
:1012800003F042FF322000F01FFAB5FBF4F31C4AD2
:10129000802137E0000800480075FF1F0070FF1F25
:1012A00000FCFF03E45E0008002004E00D5F00087E
:1012B000575F00089F5F00080000FFFFB35F000852
:1012C000C95F0008E75F0008F95F0008AD5F00082C
:1012D0000860000830600008416000086F12833A1F
:1012E00040420F006F12033B6D60000891600008E0
:1012F000E5F27F3FB7600008D5600008F5600008A0
:10130000196100083EA804F017F93EA8FEF788FF0F
:1013100001463EA803F0F8FE4FF00046322000F0F0
:10132000D3F9169600F0CAF903220546169B93FBE3
:10133000F2F31693169B03B91696013CF6D100F012
:10134000BDF9401B3A4D3B4A05FB00F42346802182
:101350003EA804F0F1F83EA8FEF762FF01463EA861
:1013600003F0D2FE322000F0AFF9B4FBF5F3324ABD
:10137000324C334D80213EA804F0DEF83EA8FEF743
:101380004FFF01463EA803F0BFFE322000F09CF95B
:101390002C493EA804F004F93EA8FEF741FF01469F
:1013A0003EA803F0B1FE322000F08EF900F086F97D
:1013B000254922680B68C31A934209D908606B69F2
:1013C0001904DB4301F0005103F400530B43AB61FC
:1013D0002B6913F4806F1D4B1DD018601C4A1368D5
:1013E000C31AC82BE2D9236810607F21194A0093E1
:1013F00003461EA804F0A0F81EA8FEF711FF014640
:101400001EA803F081FED1E74FF400343546DBE53A
:101410004FF48075D8E51968411A0A29DED90132DE
:10142000B2F57A7F18608ABF322322602360D5E745
:1014300040420F003F610008636100080000002087
:1014400000080048416000087C0200208002002063
:10145000840200208961000872B6FEE70B4B1A6E09
:1014600042F001021A661A6E82B002F00102009286
:10147000009A9A6D42F080529A659B6D03F08053FA
:101480000193019B02B001F00BBA00BF00100240B3
:1014900010B598B004461422002102A804F044F8C4
:1014A0004422002107A804F03FF82268164B9A4214
:1014B00028D1402307A8079301F03CFD08B1FFF7AE
:1014C000CBFF124C1248E36C43F00203E364E36C7D
:1014D00003F002030093009B4FF4C0721223CDE986
:1014E00002230023CDE9043302A90423069300F06C
:1014F00065F9A36D43F40013A365A36D03F4001312
:101500000193019B18B010BD005400400010024030
:101510000004004810B5044692B04422002101A8FE
:1015200004F002F82268104B9A421BD14FF40023BA
:10153000019301A84FF40073119301F0FBFC08B173
:10154000FFF78AFF094BD3F8902042F40042C3F81A
:1015500090209A6D42F480629A659B6D03F48063DB
:101560000093009B12B010BD002800400010024004
:10157000FEE7FEE7FEE7FEE7FEE7704770477047CD
:1015800000F090B8014800F009BB00BF640F0020D4
:101590000B4A116810B5034609B90A491160106871
:1015A00009490A4C0344091B8B4206D903F092FFF8
:1015B0000C2303604FF0FF3010BD1360FCE700BF49
:1015C0008802002088140020008000200004000011
:1015D000034AD2F8883043F47003C2F88830704769
:1015E00000ED00E00D4885460D480E490E4A0023E7
:1015F00002E0D458C4500433C4188C42F9D30B4AC7
:101600000B4C002301E013600432A242FBD3FFF72E
:10161000DFFF03F065FFFFF729F8FEE700800020F9
:1016200000000020EC01002068620008EC010020AE
:1016300088140020FEE7000038B50F4B05461868F7
:1016400008B9012038BD0D4A4FF47A73B3FBF0F3AB
:101650001068B0FBF3F000F09DF804460028F0D1CC
:101660000F2DEED8024629464FF0FF3000F052F819
:10167000034B20461D60E5E7080000200400002021
:101680000C00002010B5032000F032F80F20FFF707
:10169000D3FF044618B9FFF7E1FE204610BD012430
:1016A000FBE70000034A0449136809680B44136010
:1016B000704700BF8C02002008000020014B186812
:1016C000704700BF8C02002038B50446FFF7F6FFD4
:1016D000631C1CBF054B1B68054618BFE418FFF7C9
:1016E000EDFF431BA342FAD338BD00BF0800002022
:1016F0000749CA6822F4E0620302120403F4E063BB
:10170000120C134343F0BF6343F40033CB607047C4
:1017100000ED00E0164B30B5DC68C4F30224C4F1E0
:101720000705231D042D28BF0425062B4FF0FF338A
:101730008CBF033C002403FA05F521EA0501A34010
:1017400022EA0302A140002841EA0203ACBF00F1F3
:101750006040084A4FEA0313B8BF00F00F00DBB245
:10176000AABF00F56140135480F8003330BD00BFBC
:1017700000ED00E014ED00E0002808DB0123420941
:1017800000F01F0003FA00F0014B43F822007047FD
:1017900000E100E00138B0F1807F0BD24FF0E02390
:1017A000054A5861F02182F8231000200722986131
:1017B0001A6170470120704700ED00E02DE9F74FF6
:1017C000DFF88C91604C00230A6832FA03F502D1ED
:1017D00003B0BDE8F08F012505FA03FE1EEA020200
:1017E00000F0A5804E6806F003054FEA43084FF06D
:1017F000030C6F1E0CFA08FC012F6FEA0C0C34D896
:10180000876807EA0C0ACF6807FA08F747EA0A0769
:101810008760476827EA0E0EC6F300179F4047EA25
:101820000E074760C76807EA0C0E8F6807FA08F7CB
:1018300047EA0E07022DC76019D14FEAD30A00EB21
:101840008A0A03F0070BDAF820704FEA8B0B4FF08F
:101850000F0E0EFA0BFE27EA0E0E0F6907FA0BF7B2
:1018600047EA0E07CAF8207001E0032DDAD10768B5
:1018700005FA08F507EA0C072F4316F4403F076006
:1018800055D0D9F8605045F00105C9F86050D9F835
:10189000605023F0030707F1804705F0010507F5C5
:1018A0008037019503F0030E019DBD684FEA8E0E4F
:1018B0004FF00F0C0CFA0EFCB0F1904F25EA0C0C17
:1018C00037D0224DA84236D005F58065A84234D0E5
:1018D00005F58065A84232D005F58065A84230D074
:1018E00005F58065A8420CBF0525062505FA0EF50D
:1018F00045EA0C05BD60A568D74316F4801F0CBFF0
:101900003D401543A560E56816F4001F0CBF3D403F
:101910001543E560656816F4003F0CBF3D40154374
:1019200065602568F60354BF3D40154325600133CB
:101930004AE70025DAE70125D8E70225D6E703259F
:10194000D4E70425D2E700BF0004014000040048AA
:101950000010024010B5044600284AD090F84130EB
:1019600003F0FF021BB980F84020FFF791FD24230C
:1019700084F8413023681A6822F001021A60626814
:1019800022F070621A619A6822F400429A60D4E9E7
:101990000221012924D142F400429A605A6842F09F
:1019A000007242F400425A60DA6822F40042DA60BF
:1019B000D4E904210A43A16942EA0122DA60D4E9A8
:1019C00007210A431A601A6842F001021A600020D7
:1019D0002023606484F84130206384F8420010BD05
:1019E00042F4044202299A6004BF4FF400625A6034
:1019F000D4E70120F3E710B590F84130202BDCB29A
:101A00001DD190F84030012B19D0242380F84130AB
:101A100003681A6822F001021A601A6822F48052E0
:101A20001A601A68114319601A6842F001021A60BC
:101A3000002380F8414080F84030184610BD022055
:101A4000FCE710B590F84130202BDCB21CD190F8A7
:101A50004030012B18D0242380F8413003681A68E5
:101A600022F001021A601A6822F4706242EA01212F
:101A700019601A6842F001021A60002380F84140A0
:101A800080F84030184610BD0220FCE7F0B504464F
:101A900087B0002855D090F8A93203F0FF021BB997
:101AA00080F8A82203F0C6FB032384F8A93220683B
:101AB00002F061F800236568282601271846D9B28C
:101AC0008D4203F1010221D8002328261946D8B2FD
:101AD000854203F1010327D804F110060FCE6D46AD
:101AE0000FC533682B60231D0ECB206802F04DF824
:101AF0000025012384F8245084F8A932E369012BDE
:101B000002D1204600F05BFE28461BE006FB0143A5
:101B1000C3E90E0083F8297083F82810D98683F86A
:101B20002B0018641346CAE706FB0042C2E95E11A7
:101B300082F8691182F8680182F86B11C2F880118D
:101B4000C5E7012007B0F0BD10B590F8A832012B11
:101B500004460CD0012380F8A832006802F002F895
:101B6000206802F0BDFA002084F8A80210BD02200F
:101B7000FCE710B590F8A822012A04460BD00122F8
:101B800080F8A82280F82410006802F0A3FA002050
:101B900084F8A80210BD0220FCE700002DE9F74FF1
:101BA0000446006802F0A7FA10F4004100F02D840A
:101BB000DFF80C83C14F2068B0F844301A0402D417
:101BC00003B0BDE8F08FB0F84450A9B215F00F058E
:101BD00040F0B78011F010012AD103889BB203EACC
:101BE000080343F400430380B0F8503094F82820F1
:101BF00000F2024010FA83F3204633F83230E26BF1
:101C0000C3F3090363641344E36303F050FB94F8E4
:101C10002430002BCFD0226C002ACCD194F8243071
:101C2000216843F08003A1F84C3084F82420C2E7F7
:101C30000588ABB215F4006520D0B0F8503094F8A8
:101C4000682100F2064111FA83F304F52C7133F890
:101C50003230B4F86E21C3F30903C4F8843102F0C2
:101C60007BFC2268138823F070031B051B0D43F0D7
:101C700080031380204603F00BFB9CE71A049AD5DF
:101C8000038823F070031B051B0D43F080030380C2
:101C9000B0F8503094F8682100F2064111FA83F34D
:101CA00033F83230C3F30903C4F884318BB1D4F86C
:101CB0007C1171B1B4F86E2102F04EFCD4F87C3185
:101CC000D4F884211344C4F87C312946204603F01B
:101CD000E5FA21680B881B053FF56DAFD4F8785104
:101CE000B1F850303E2D9BB201F2064008D96A0986
:101CF000EE0608BF02F1FF3247EA822292B20AE002
:101D0000CDB9C25A22F4F8421204120CC252C25A7D
:101D100092B242F40042C2520B8823F4804323F073
:101D200070031B041B0C83F4405343F4004343F043
:101D300080030B803FE76A08ED0748BF013292023B
:101D4000DCE70FFA85F930F8293019049EB240F12A
:101D5000F78030F8293023F070031B051B0D43F08A
:101D60008003282120F8293001FB054191F87431C6
:101D7000BBB9B0F8503091F8682100F2064C1CFA5B
:101D800083F333F832A0CAF3090ABAF1000F00F066
:101D9000BB80B1F86E215346D1F87C1102F0DCFB18
:101DA000B2E091F86B31022B91F8683140F08A80F3
:101DB00016F4804BD1F88021B0F850C04FEAC30A26
:101DC00006F0400E3DD01AFA8CFA8244BAF802A40A
:101DD000CAF3090A924513D90022C1F8802130F8CC
:101DE000232022F4804222F070021204120C82F4AA
:101DF000005242F4004242F0800220F8232005E025
:101E0000A2EB0A02C1F88021002AE8D0BEF1000F3F
:101E10000DD030F8232022F4E04222F070021204A8
:101E2000120C42F4004242F0C00220F82320BAF122
:101E3000000F69D0282101FB0541B1F870215346FC
:101E4000AAE71AFA8CFC8444BCF806A4CAF3090A6F
:101E5000924512D9C1F880B130F8232022F4804293
:101E600022F070021204120C82F4005242F400427A
:101E700042F0800220F8232005E0A2EB0A02C1F81C
:101E80008021002AE8D0BEF1000F0DD130F82320C8
:101E900022F4E04222F070021204120C42F40042DA
:101EA00042F0C00220F82320BAF1000F2CD02821E4
:101EB00001FB0541B1F8722153466DE70080FFFF39
:101EC0000F8FFFFF30F8232022F4E04222F070024F
:101ED0001204120C42F4004242F0C00220F8232007
:101EE00091F8682130F8223013F4804FB0F8503068
:101EF00062D000F2024C1CFA83F333F832A0CAF32A
:101F0000090ABAF1000F98D1282101FB0543D3F843
:101F100084215244C3F88421D3F87C215244C3F86D
:101F20007C21D3F880211AB1D3F878319A454FD269
:101F3000282303FB0543204693F8681103F0AEF90C
:101F400032067FF538AE206830F829309BB203EABC
:101F5000080343F4004320F8293009EB890904EB16
:101F6000C9094FF0280C99F82B30022B5BD00CFBE1
:101F7000054C00259CF83430CCF84050002B3AD06A
:101F800016F0400699F8293099F8281039D03BBB53
:101F9000B0F8503000F2024010FA83F000EBC100BC
:101FA000038823F4F8431B041B0C038003889BB2B3
:101FB00043F4004303801EE000F2064C1CFA83F356
:101FC00033F832A0CAF3090ABAF1000F9CD071E7C6
:101FD00001FB0541206801F5B47102F09FF8AFE7FD
:101FE000012B08D1B0F8502000F2024010FA82F024
:101FF00000EBC100058099F82810204603F057F93E
:10200000D9E523B9B0F8503000F20640C4E7012BFF
:10201000F1D1B0F8503000F2064010FA83F303EB30
:10202000C1000680E7E799F828100CFB054C16F470
:10203000807EDCF840300A464FEAC10A22D1B0F86F
:10204000502010FA82F25244B2F80224C2F309027C
:102050009A4202D3CCF840E0CFE79B1ACCF840304C
:10206000DCF83C301344CCF83C30DCF8443001352B
:10207000134405EB8505CCF8443004EBC50102F0B0
:102080004DF898E516F0400AB0F850C006F48046C6
:1020900000F0DC8000F2024E1EFA8CFC4FF0280AA1
:1020A0003CF831C0CCF3090C9C450AFB054A34BF0F
:1020B000A3EB0C030023CAF84030B6B2002B54D176
:1020C00099F82950002D3FD1B0F850301EFA83FE08
:1020D0003EF8313023F4F8431B041B0C2EF831304A
:1020E0003EF831309BB243F400432EF83130B0F863
:1020F000503000F2064010FA83F030F8313023F40B
:10210000F8431B041B0C20F8313030F831309BB2FF
:1021100043F4004320F83130204603F0C8F8002E85
:1021200000F0DD8099F82810226832F8213023F47D
:10213000E04323F070031B041B0C43F4404343F0C3
:10214000800322F82130CAE0012DE5D1B0F85050CB
:102150001EFA85FE2EF83130B0F8505000F20640DD
:1021600010FA85F525F83130D6E76EB130F8213018
:1021700023F4E04323F070031B041B0C43F440439F
:1021800043F0800320F82130282606FB054696F808
:102190004C30012B40F0A380736CF16BD6F848A053
:1021A00063447364B36B61449A45F1631AD3AAEB39
:1021B000030AC6F848A099F829601FFA83FC002E8C
:1021C0003BD1B0F850603E2B1EFA86FE17D95E094F
:1021D000DB0608BF06F1FF3647EA8626B6B22EF8C0
:1021E00032601CE0BAF1000F03D186F84CA06346C0
:1021F000E1E7002386F84C30B3645346DBE7B3B91C
:102200003EF8323023F4F8431B041B0C2EF8323016
:102210003EF832309BB243F400432EF8323028238C
:1022200003FB054563462A8E01F069FF57E05E080F
:10223000DB0748BF0136B602D0E7012E02BFB0F877
:1022400050301EFA83FE2EF832C0E8E700F2064E48
:102250001EFA8CFCB6B23CF831C0CCF3090C9C459C
:1022600088BF53464FF0280A0AFB054A98BFA3EBE4
:102270000C03CAF84030002B53D199F82950002D97
:1022800040D1B0F8505000F2024313FA85F535F80A
:10229000313023F4F8431B041B0C25F8313035F89A
:1022A00031309BB243F4004325F83130B0F8503060
:1022B0001EFA83FE3EF8313023F4F8431B041B0C56
:1022C0002EF831303EF831309BB243F400432EF803
:1022D0003230204602F0EBFF002E3FF423AF99F896
:1022E0002810226832F821309BB223F4E04323F017
:1022F000400383F0300343F4004343F0800322F8AB
:10230000213058E4012DE4D1B0F8505000F2024CD5
:102310001CFA85F525F83130B0F850001EFA80FE21
:10232000D5E76EB930F8213023F4E04323F0700391
:102330001B041B0C43F4404343F0800320F821307E
:10234000282606FB054696F84C30012BC7D1736C46
:10235000F16BD6F848A063447364B36B61449A454B
:10236000F1631CD3AAEB030AC6F848A099F829C068
:102370009EB2BCF1000F3ED1B0F850C03E2B1EFA09
:102380008CFE19D94FEA531CDB0608BF0CF1FF3C49
:1023900047EA8C2C1FFA8CFC2EF832C01CE0BAF1F4
:1023A000000F03D186F84CA06346DFE70023B36437
:1023B00086F84C305346D9E7A3B93EF8323023F4BF
:1023C000F8431B041B0C2EF832303EF832309BB21F
:1023D00043F400432EF83230282303FB05453346EF
:1023E0006A8E21E74FEA530CDB0748BF0CF1010C62
:1023F0004FEA8C2CCEE7BCF1010F02BFB0F8503091
:102400001EFA83FE2EF83260E6E7430513D52268F4
:102410000191B2F8443023F480631B041B0C204666
:10242000A2F8443002F04FFF0199204603B0BDE806
:10243000F04FFFF79EBB47040AD52268B2F844303C
:1024400023F480431B041B0CA2F84430FFF7B8BBF5
:1024500010F4005105D02268B2F8443023F4005340
:10246000F0E7C60422D52268B2F8403023F0040316
:102470001B041B0CA2F84030B2F8403023F00803D4
:102480001B041B0CA2F8403094F8E032012B04D15D
:1024900084F8E012204602F0F3FF204602F036FFF7
:1024A0002268B2F8443023F48053CBE705051BD5EE
:1024B0002268B2F840309BB243F00803A2F84030E3
:1024C000B2F8443023F400631B041B0CA2F8443020
:1024D000B2F840309BB243F00403A2F840302046EB
:1024E00002F004FFFFF76CBB01062BD52368B3F89D
:1024F000442022F080021204120CA3F8442094F825
:10250000E022002AEBD1B3F8402092B242F004025C
:10251000A3F84020B3F8402092B242F00802012113
:10252000A3F8402084F8E012B3F85430C3F38D03CD
:1025300003F03C032046C4F8E43203B0BDE8F04F9A
:1025400002F09EBF82050DD52268B2F8443023F414
:1025500000731B041B0CA2F84430204602F0AFFEAF
:10256000FFF72EBBC3057FF52BAB2268B2F84430D2
:1025700023F4807366E700BF70B501F00705090614
:10258000044622D5691C01EB810100EBC101282022
:1025900005FB00002044012646700A614A780D7050
:1025A000CB7002B1CD81022B04BF00230B7194F8D4
:1025B000A832012B14D00123206884F8A83201F03E
:1025C000F9FA002084F8A80270BD282000FB05411C
:1025D00000FB0540002601F5B47180F86961DCE775
:1025E0000220F1E70B0610B501F00702044619D5E9
:1025F0002823511C02FB0333034401EB810100EB50
:10260000C101012058700A7094F8A832012B14D02F
:102610000123206884F8A83201F022FC002084F80D
:10262000A80210BD282303FB020103FB02030020C4
:1026300001F5B47183F86901E5E70220F1E770B5AF
:1026400001F00701282606FB0104002584F8681123
:10265000C4E95F23C4F8845184F8695104F5B47166
:10266000006801F05BFD284670BD01F007012823DA
:1026700003FB0100D0F88401704738B501F0070171
:10268000282404FB0104C4E90F23A36401EB8103A4
:1026900000EBC3030122002584F84C20656483F815
:1026A0002810114401EB810100EBC10183F82920BE
:1026B000006801F033FD284638BD38B5044601F006
:1026C00007006368984226D80B061AD5282300FB1A
:1026D0000333411C234401EB8101012204EBC101BE
:1026E0005A7001238B70087094F8A8229A4214D073
:1026F000206884F8A83201F084FC002084F8A80245
:1027000038BD282505FB01431A4603F5B4710023A3
:1027100082F86931E5E70120F2E70220F0E738B5F9
:10272000436801F00F029A4204462AD80B0601F0D2
:1027300007021BD52823511C02FB0333034401EB82
:10274000810100EBC1010120587000258D700A70D5
:1027500094F8A832012B16D00123206884F8A832FF
:1027600001F06FFC84F8A852284638BD282303FBEB
:10277000020103FB0203002001F5B47183F8690133
:10278000E3E70120F1E70220EFE711F0800F18BF27
:1027900001F0070110B54FF0280415BF01FB0441FB
:1027A00004FB0100401800F5B47099B21AB9027325
:1027B000C180002010BD012202738360F9E7026826
:1027C000002180F8E0120123C0F8E832B2F854305A
:1027D0009BB243F00103A2F85430B2F854309BB2DC
:1027E00043F00203A2F8543008467047294B1A6898
:1027F00030BB02F4C062B2F5806FD3F8802022F4BF
:102800008072C3F880201AD11A6822F4C06242F4A0
:1028100000721A60204A126832214A431F49B2FBF3
:10282000F1F201325969490500D522B95B695805B1
:1028300003D400207047013AF4E703207047704743
:10284000B0F5007F1FD102F4C062B2F5806FD3F8FB
:10285000802042F48072C3F88020EAD11A6822F402
:10286000C06242F400721A600B4A126832214A4375
:102870000A49B2FBF1F2013259694905D6D5002A5D
:10288000D4D0013AF8E722F4C06242F480621A60C0
:10289000CFE700BF007000400400002040420F005E
:1028A000024A936843F4804393607047007000408D
:1028B0002DE9F341044640B30368DF0714D42368CD
:1028C0009E075BD423681E0700F1A48023685D0780
:1028D00000F1CB8023689B0600F13281E06900287B
:1028E00040F06081002028E0A14DAB68EA6803F069
:1028F0000C030C2B0BD102F00303032B09D12B6823
:102900009D03DCD56368002BD9D1012015E0082B8D
:10291000F4E76368B3F5803F12D12B6843F480334A
:102920002B60FEF7CBFE06462B689803C7D4FEF754
:10293000C5FE801B6428F7D9032002B0BDE8F081F2
:10294000B3F5A02F04D12B6843F480232B60E4E778
:102950002A6822F480322A602A6822F480222A60BF
:10296000002BDED1FEF7AAFE06462B689903A6D5FA
:10297000FEF7A4FE801B6428F7D9DDE77C4DAB6829
:10298000EA6803F00C030C2B17D102F00303022BAF
:1029900015D12B685A0502D5E368002BB5D06B68BA
:1029A000226923F0FE4343EA02636B60714B1868AF
:1029B000FEF742FE002885D0A7E7042BE8E7E3688E
:1029C000BBB12B6843F480732B60FEF777FE06469D
:1029D0002B685B0507D56B68226923F0FE4343EA49
:1029E00002636B606EE7FEF769FE801B0228EFD979
:1029F000A2E72B6823F480732B60FEF75FFE064688
:102A00002B685F057FF55EAFFEF758FE801B02283E
:102A1000F6D991E76369564D9BB1D5F8943043F0F0
:102A20000103C5F89430FEF749FE0646D5F8943008
:102A300098073FF54BAFFEF741FE801B0228F5D902
:102A40007AE7D5F8943023F00103C5F89430FEF707
:102A500035FE0646D5F8943099077FF537AFFEF777
:102A60002DFE801B0228F5D966E7414DAB6DDA00DB
:102A700027D4AB6D43F08053AB65AB6D03F080534F
:102A80000193019B01273C4E3368DB051BD5A368EE
:102A9000012B29D1D5F8903043F00103C5F89030CF
:102AA000FEF70CFE41F288380646D5F890309907BB
:102AB00040D5002F3FF40EAFAB6D23F08053AB65D4
:102AC00008E70027DFE7336843F480733360FEF7DD
:102AD000F5FD80463368D805D9D4FEF7EFFDA0EBAD
:102AE00008000228F6D927E7052B06D1D5F8903043
:102AF00043F00403C5F89030CCE7D5F8902022F0DD
:102B00000102C5F89020D5F8902022F00402C5F803
:102B10009020002BC4D1FEF7D1FD41F28838064643
:102B2000D5F890309A07C4D5FEF7C8FD801B404504
:102B3000F6D901E7FEF7C2FD801B4045B5D9FBE69B
:102B4000A3690B4DD3B1D5F8983043F00103C5F814
:102B50009830FEF7B3FD0646D5F898309F073FF54D
:102B6000BDAEFEF7ABFD801B0228F5D9E4E600BF41
:102B7000001002400C00002000700040D5F8983092
:102B800023F00103C5F89830FEF798FD0646D5F806
:102B9000983098077FF5A2AEFEF790FD801B0228C3
:102BA000F5D9C9E6484DAB6803F00C030C2B57D0A0
:102BB0002B68022823F080732B603AD1FEF77EFD4C
:102BC00006462B6899012ED4EA68404B1340226ACE
:102BD0001343A26A43EA0223E26A43EAC263626AD7
:102BE000013A43EA0213226B5208013A43EA425384
:102BF000626B5208013A43EA4263EB602B6843F090
:102C000080732B60EB6843F08073EB60FEF756FD3A
:102C100004462B689A013FF565AEFEF74FFD001B99
:102C20000228F6D988E6FEF749FD801B0228C8D99C
:102C300082E6EB6823F00303EB60EB6823F0887314
:102C400023F48033EB60FEF739FD04462B689B01CB
:102C50007FF548AEFEF732FD001B0228F6D96BE681
:102C600001283FF46AAEEB68226A03F00301914247
:102C70007FF44BAE616A03F0F0020139B2EB011F41
:102C80007FF443AEA16A03F4FE42B2EB012F7FF45E
:102C90003CAEE16A03F07842B2EBC16F7FF435AE2F
:102CA000226B520803F4C001013AB1EB425F7FF49A
:102CB0002CAE626B520803F0C063013AB3EB426F73
:102CC0003FF410AE21E600BF001002400C809F01CF
:102CD000174B9A6802F00C02042A23D09A6802F07B
:102CE0000C02082A20D09A6802F00C020C2A1DD18E
:102CF000D968DA68D868DB6801F00301C3F341637F
:102D00000329C2F30312C0F3062003F101030CBF31
:102D1000084909495B000132B1FBF2F25043B0FBB4
:102D2000F3F070470448704702487047002070472E
:102D30000010024000127A000024F4002DE9F8434C
:102D40000E46054610B90120BDE8F8836D4A1368A8
:102D500003F00F038B4245D3296811F001074CD1D2
:102D60002A68910740F1A880674B12F0040F1EBF3C
:102D7000996841F4E0619960120741BF9A6822F4B2
:102D80007C5242F4E0629A609A68A96822F0F002EC
:102D90000A439A605B4C236803F00F03B34200F2CE
:102DA00093802A68584C12F0040F40F0A380130758
:102DB00006D5A3682A6923F4605343EAC203A360DB
:102DC000FFF786FFA368514AC3F30313D35C03F0F4
:102DD0001F03D8404E4B18604E4B1868BDE8F843AF
:102DE000FEF72ABC136823F00F030B43136013682C
:102DF00003F00F038B42A6D1AEE76B68424C032B66
:102E00004AD123689F019ED5E368E26803F003037B
:102E1000032BE3680CBF40484048C2F30312C3F3DE
:102E200006230132B0FBF2F25343E268C2F341627F
:102E300001325200B3FBF2F3394A93421BD8002708
:102E4000A3686A6823F003031343A360FEF736FC0C
:102E500041F288398046A3686A6803F00C03B3EB3B
:102E6000820F3FF47DAFFEF729FCA0EB0800484538
:102E7000F1D9032068E7A36813F0F00F04D08807A6
:102E8000DDD5AB68002BDAD1A36823F0F00343F063
:102E90008003A3608027D3E7022B236809D113F4B2
:102EA000003F3FF450AFFFF713FF1D4B9842C6D9C8
:102EB000EAE713F4806FF4E7802F01BF124A9368AA
:102EC00023F0F003936065E7236823F00F03334397
:102ED0002360FEF7F3FB41F288380746236803F0CE
:102EE0000F03B3423FF45DAFFEF7E8FBC01B404564
:102EF000F4D9BEE7A368E96823F4E0630B43A36059
:102F000055E700BF0020024000100240AD610008FC
:102F1000040000200C00002000127A000024F400BD
:102F200000B4C404024A136843F4002313607047DA
:102F3000001002402DE9F3410446006810F400201F
:102F400039D0994DAB6DD80027D4AB6D43F0805389
:102F5000AB65AB6D03F080530193019B0126934F4A
:102F60003B6843F480733B60FEF7A8FB80463B68F8
:102F7000D90514D5D5F8903013F4407303D0226CE2
:102F8000934240F0EB80D5F89030226C23F44073EC
:102F90001343C5F89030002008E00026DFE7FEF775
:102FA0008DFBA0EB08000228E1D903201EB1AB6D18
:102FB00023F08053AB652368DE0708D57A4965683E
:102FC000D1F8882022F003022A43C1F888209D0707
:102FD00008D57549A568D1F8882022F00C022A434B
:102FE000C1F88820590708D56F49E568D1F88820CD
:102FF00022F030022A43C1F888201A0708D56A490E
:103000002569D1F8882022F0C0022A43C1F888201F
:103010009F0608D564496569D1F8882022F440628A
:103020002A43C1F888205E0608D55F49A569D1F812
:10303000882022F440522A43C1F888201D0608D572
:103040005949E569D1F8882022F440422A43C1F861
:103050008820D90508D55449256AD1F8882022F45A
:1030600040322A43C1F888209A0508D54E49656A3E
:10307000D1F8882022F440222A43C1F888205F0535
:103080000FD54949A56AD1F8882022F440122A4375
:10309000C1F88820B5F5801F02BFCA6842F48012CB
:1030A000CA601E050FD54049E56AD1F8882022F490
:1030B00040022A43C1F88820B5F5800F02BFCA68D4
:1030C00042F48012CA60DD040FD53749256BD1F870
:1030D000882022F040722A43C1F88820B5F1807F11
:1030E00002BFCA6842F48012CA6099040FD52E4903
:1030F000656BD1F8882022F040622A43C1F888200D
:10310000B5F1006F02BFCA6842F48012CA605A0467
:103110000FD52549A56BD1F8882022F040622A43BB
:10312000C1F88820B5F1006F02BFCA6842F480126E
:10313000CA601B040FD51C4AE16BD2F8883023F01B
:1031400040530B43B1F1805FC2F8883003D1D3689C
:1031500043F48033D36002B0BDE8F081D5F890200D
:10316000D5F8903043F48033C5F89030D5F89030DE
:1031700022F4407123F48033D207C5F89030C5F8AB
:1031800090107FF500AFFEF799FA41F288380746B4
:10319000D5F890309B073FF5F6AEFEF78FFAC01BCF
:1031A0004045F5D901E700BF001002400070004023
:1031B000026838B5D36823F02003D3600446FEF7D5
:1031C0007DFA05462368DB689B0601D5002038BDE3
:1031D000FEF774FA401BB0F57A7FF3D90320F6E7C7
:1031E000F8B50368DC6814F04004054619D1DA68C4
:1031F00042F08002DA60FEF761FA032706462B6888
:10320000DB685B0601D4032C01D12046F8BDFEF734
:1032100055FA801BB0F57A7F84BF85F825700324AA
:10322000EDE70024F1E70368DA6822F0800210B5C8
:10323000DA609A699206044606D4FFF7B9FF10B126
:10324000032084F8250010BD9A6922F020029A61BB
:10325000FFF7AEFF10B1032084F8250022689369C0
:1032600043F020039361EEE738B5044600283FD0D1
:1032700090F8253003F0FF021BB980F82420FEF7F8
:1032800049F9022384F825302368CA225A6253225E
:103290005A622046FFF7A4FF10BB22682069936999
:1032A00023F08E6323F040039361636891690343C5
:1032B000A06903430B439361D4E9021343EA01433A
:1032C00013612046FFF7AFFF50B9D4E907532168D7
:1032D0002B438A69656922F060422B4313438B615B
:1032E0002368FF225A6210B9012384F8253038BDC3
:1032F0000120FCE74FF0A04303F5807353F8F82C4E
:103300009B68134370B513F0010412D1D1E9005347
:10331000094E8268324043B12B4313438A681343FA
:10332000CA6813438360204670BD2A4382601846F2
:10333000FAE70120F8E700BFE030C0FF836813F030
:10334000010330B50DD1D1E90025C46889682A434D
:103350000A4324F4404121F018010A43C260184690
:1033600030BD0120FCE700008368DB07F0B51BD40B
:10337000D1E90032D1E903474E690C4D234372B1C4
:10338000C46889683B4333432C4023430B43C360E9
:10339000036B23F00F03134303630020F0BDC168E8
:1033A0003B4333432940F1E70120F7E71CC0F0FF1E
:1033B0002DE9F04F02460D6895FAA5F44FF0010E85
:1033C000B4FA84F403274FF00F0C6FEA050835FABE
:1033D00004F001D1BDE8F08F0EFA04F32B4068D061
:1033E0004868461E012E1ED8966893FAA3F9B9FACA
:1033F00089F94FEA490907FA09F926EA090993FA0E
:10340000A3FA8E68BAFA8AFA4FEA4A0A06FA0AF664
:1034100046EA09069660566808EA0609CE686E43D1
:1034200049EA06065660D66893FAA3F9B9FA89F90B
:103430004FEA490907FA09F926EA090993FAA3FAB2
:103440000E69BAFA8AFA4FEA4A0A06FA0AF646EA10
:1034500009060228D66018D1FF2BD1F814A02AD86B
:10346000D2F8209093FAA3F6B6FA86F6B6000CFAD4
:1034700006F629EA060993FAA3F6B6FA86F6B60026
:103480000AFA06F646EA09061662D2F8009093FA9E
:10349000A3F6B6FA86F6760007FA06F629EA0606D5
:1034A00093FAA3F3B3FA83F35B0000FA03F3334315
:1034B000136001348BE7D2F824B04FEA132999FA4C
:1034C000A9F6B6FA86F6B6000CFA06F62BEA060B53
:1034D00099FAA9F6B6FA86F6B6000AFA06F646EAA8
:1034E0000B065662D1E70000F8B5046814F0010439
:1034F00005460F463FD13A69BB68016813437A69B4
:1035000013431E4A0A40134303604368FA6823F4D6
:103510004053134343608368BA6923F440731343F1
:1035200083604FF4406000F085F83E6808B37F6820
:10353000FFB1B3B2124A214632F813202346FCF7FA
:10354000C7FE0346090241EA136178081B021818F6
:103550003A46234641F10001FCF7BAFEC0F31300DE
:10356000E8602046EB6AB6B223F00F031E43EE621A
:10357000F8BD0120F6E70120FAE700BFF3E9FFEF0D
:10358000C6610008024B1868C0F38020704700BF76
:1035900000100240024BD3F89000C0F34000704787
:1035A00000100240044B054A9B68C3F30313D35C2D
:1035B00003F01F03D840704700100240AD610008BF
:1035C000044B054A9B68C3F30223D35C03F01F033B
:1035D000D840704700100240BD610008124B9A6845
:1035E00002F00C02082A1BD00C2A1BD1DA680F4803
:1035F0000F4902F00302032A18BF0146D868DA68AF
:10360000DB68C3F34163C0F30620C2F30312013346
:10361000484301325B00B0FBF2F0B0FBF3F07047BF
:103620000348704701487047001002400024F4002E
:1036300000127A0008B5134BD3F888301840B0F563
:10364000006F09D0B0F5406F0BD0B0F5806F0FD18F
:10365000BDE80840FFF7C2BFFFF794FF80B9002024
:1036600008BDFFF797FF0028F9D04FF40040F7E7B7
:10367000FFF7B4FFFFF796FFBDE80840FFF7A0BFD4
:103680000148EDE7001002400024F40003685B06E7
:1036900070B52DD4D1E900363343CE684A69056848
:1036A0000C6A33430E6933438E6913433343CE6947
:1036B00025F47F45334325F0BF0523432B430360A7
:1036C00043688D6823F4706323F0040345EA1242D3
:1036D0001A43B5F5006F42603EBF436843F4805320
:1036E0004360B4F5005F01D18B8C0361002300E0DF
:1036F0000123C26922F40062C261184670BD000055
:103700002B4A036890420ED0B0F1804F0BD0A2F547
:103710009432904207D002F58062904203D002F5C5
:103720009632904215D14A6823F070031343204A21
:10373000904219D0B0F1804F16D0A2F59432904249
:1037400012D002F5806290420ED002F5963290427D
:103750000AD0184A904207D002F58062904203D006
:1037600002F58062904203D1CA6823F44073134388
:1037700003608B68C3620B8883620D4B98420FD045
:1037800003F5006398420BD003F54063984207D0DD
:1037900003F58063984203D003F58063984201D11A
:1037A0000B690363436943F00103436100207047E1
:1037B000002C014000400140B1F5805F30B500F0C1
:1037C00011810AD8102900F08680B1F5807F00F0C1
:1037D000C68001293DD0012030BDB1F5803F00F009
:1037E0004781B1F5801FF6D1036A146823F4801372
:1037F0000362036A016D21F0807121F4E04141EA26
:103800000424116923F4001343EA0153516823F49B
:10381000801343EA0153954988420FD001F50061B6
:1038200088420BD001F54061884207D001F58061E4
:10383000884203D001F58061884206D141689569CC
:1038400021F4802141EA85214160D2680465C26487
:103850003EE0036A156823F001030362036A4168CE
:10386000846924F4803424F073042C43156923F014
:1038700002032B43556823F001032B437B4DA842E1
:103880000FD005F50065A8420BD005F54065A842AC
:1038900007D005F58065A84203D005F58065A842EC
:1038A00012D1556923F0080343EA8503956823F094
:1038B000040343EA8503956921F480712943D5699E
:1038C00021F4007141EA4501D2684160846142639C
:1038D0000362002080E7036A156823F01003036287
:1038E000036A4168846924F0807424F4E64444EA5D
:1038F0000524156923F0200343EA0513556823F0D6
:10390000100343EA0513594DA8420FD005F5006591
:10391000A8420BD005F54065A84207D005F58065A3
:10392000A84203D005F58065A84213D1556923F05C
:10393000800343EA8513956823F0400343EA851327
:10394000956921F4806141EA8501D56921F400611E
:1039500041EAC501D268416084618263B8E7036AC5
:10396000156823F480730362036A4168C46924F410
:10397000803424F073042C43156923F4007343EA64
:103980000523556823F4807343EA0523374DA84285
:103990000FD005F50065A8420BD005F54065A8429B
:1039A00007D005F58065A84203D005F58065A842DB
:1039B00013D1556923F4006343EA8523956823F402
:1039C000806343EA8523956921F4805141EA05111A
:1039D000D56921F4005141EA4511D2684160C461C2
:1039E000C26375E7036A156823F480530362036AB0
:1039F0004168C46924F0807424F4E64444EA052450
:103A0000156923F4005343EA0533556823F48053C2
:103A100043EA0533154DA8420FD005F50065A842CD
:103A20000BD005F54065A84207D005F58065A84292
:103A300003D005F58065A84213D1556923F40043EE
:103A400043EA8533956823F4804343EA85339569D7
:103A500021F4804141EA8511D56921F4004141EA10
:103A6000C511D2684160C461026431E7002C014095
:103A7000036A146823F480330362036A016D21F43E
:103A8000803121F070010C43116923F4003343EAC3
:103A90000143516823F4803343EA01430F498842CC
:103AA0000FD001F5006188420BD001F540618842DA
:103AB00007D001F58061884203D001F5806188421A
:103AC00006D14168956921F4803141EA05214160C0
:103AD0000465D268816C8264FAE600BF002C014064
:103AE0008A680B7B13434A6823F4806313430A6894
:103AF00023F40063134323F48052CB8913430A69F0
:103B000023F400531343CA6A23F440431343144A73
:103B1000904203D002F5006290421ED14A6923F41C
:103B2000702313438A6923F0805313430C4A904255
:103B300003D002F5006290420FD14A6A23F4700369
:103B40001343CA6923F0807313430A6A23F0007396
:103B500013438A6A23F000531343436400207047E1
:103B6000002C014000234BF68072A0F84430A0F8EE
:103B7000402018467047B0F8403023F47E535B0471
:103B80005B0CA0F840300020704784B010B503AC47
:103B900084E80E00BDE810400123A0F84030002367
:103BA000A0F8403004B0A0F84430A0F850301846D7
:103BB00070470000F0B591F800E0CD7830F82E2085
:103BC00022F4EC4222F0700212047346120C032D10
:103BD0004CD8DFE805F00248464442F400722C4617
:103BE00048F280073A4320F8232030F82360DFF8BA
:103BF0006CC2B6B206EA0C0646EA0E063E4320F850
:103C000023600A7B00EBCE0E002A7CD1CA884E7856
:103C10005208520066B3B0F850101EFA81FEAEF89A
:103C2000002430F8232057060AD530F8232092B21A
:103C300002EA0C0242F4004242F0C00220F82320C3
:103C400030F82320834992B2012D02EA010201D00B
:103C500082F0200242F4004242F08002B1E042F4DD
:103C6000C0620024BCE742F48062FAE70124B7E7AF
:103C7000B0F8505009691EFA85F53E29A5F80424CC
:103C8000B0F850201EFA82FE27D94D09724ACE069E
:103C900008BF05F1FF3542EA852292B2AEF806244C
:103CA00030F8232057040DD530F8232022F4E042C9
:103CB00022F070021204120C42F4404242F08002E0
:103CC00020F8232030F8232022F4804222F07002D2
:103CD0001204120C82F44052BCE771B9BEF80624FB
:103CE00022F4F8421204120CAEF80624BEF80624A0
:103CF0006FEA42426FEA5242CFE74A08C90748BF1B
:103D000001329202C9E7022D30F823205DD192B230
:103D100002EA0C0242F4014242F0800220F8232021
:103D2000B0F850600A891EFA86F652085200A6F8CA
:103D30000024B0F850201EFA82FE4A895208520030
:103D4000AEF804244A78002A47D130F823205604DC
:103D50000DD530F8232022F4E04222F07002120444
:103D6000120C42F4404242F0800220F8232030F846
:103D7000232055060DD530F8232022F4E04222F00E
:103D800070021204120C42F4004242F0C00220F809
:103D9000232030F8232022F4804222F07002120403
:103DA000120C48F2800182F440520A4320F823208A
:103DB00030F8232022F4E04222F040021204120CD8
:103DC0000A4320F823202046F0BD22F4E24222F0EC
:103DD00070021204120C3A43A0E730F82320510479
:103DE0000DD530F8232022F4E04222F070021204B4
:103DF000120C42F4404242F0800220F8232030F8B6
:103E0000232052060DD530F8232022F4E04222F080
:103E100070021204120C42F4004242F0C00220F878
:103E2000232030F823200B4992B20A40012D18BFFD
:103E300082F0200242F4004242F0800220F8232067
:103E400030F8232022F4804222F070021204120C77
:103E500000E700BFBF8FFFFF0080FFFF8F8FFFFFD6
:103E60004A780B78097BD9BB0AB330F82320510676
:103E70000DD530F8232022F4E04222F07002120423
:103E8000120C42F4004242F0C00220F8232030F825
:103E9000232022F4E04222F040021204120C42F4E9
:103EA000004242F0800220F823200020704730F8C2
:103EB000232052040DD530F8232022F4E04222F0D2
:103EC00070021204120C42F4404242F0800220F8C8
:103ED000232030F8232022F4804222F07002DCE715
:103EE000002A48D130F8232051040DD530F8232082
:103EF00022F4E04222F070021204120C42F440421A
:103F000042F0800220F8232030F8232052060DD5FD
:103F100030F8232022F4E04222F070021204120C46
:103F200042F4004242F0C00220F8232030F823205F
:103F300022F4E04222F070021204120C42F4004219
:103F400042F0C00220F8232030F8232022F48042DF
:103F500022F070021204120C48F280010A4320F889
:103F6000232030F8232022F4E04222F04002120401
:103F7000120C0A4397E730F8232051040DD530F88E
:103F8000232022F4E04222F070021204120C42F4C8
:103F9000404242F0800220F8232030F823205206CD
:103FA0000DD530F8232022F4E04222F070021204F2
:103FB000120C42F4004242F0C00220F8232030F8F4
:103FC000232022F4E04222F070021204120C42F488
:103FD000404242F0800220F8232030F8232022F4CF
:103FE000E04222F040021204120C48F280010A431F
:103FF00020F8232030F8232022F4804222F070029F
:10400000B5E74B780A788BB130F8223023F4E043DF
:1040100023F040031B041B0C83F0100343F4004304
:1040200043F0800320F822300020704730F822301F
:1040300023F4804323F070031B041B0C83F4805390
:10404000ECE70B7B3BBB4B780A7833B330F822307C
:104050005B060DD530F8223023F4E04323F07003E3
:104060001B041B0C43F4004343F0C00320F8223030
:10407000CB78012B0FD030F8223023F4E04323F02B
:1040800040031B041B0C83F0200343F4004343F064
:10409000800320F822300020704730F822305B0483
:1040A0000DD530F8223023F4E04323F070031B04D5
:1040B0001B0C43F4404343F0800320F8223030F8D7
:1040C000223023F4804323F070031B041B0C83F481
:1040D0004053DAE711B98023A0F84C300020704734
:1040E000B0F858306FEA43436FEA53439BB2A0F8ED
:1040F000583000207047B0F8440080B2704702F595
:104100008062013310445B0801EB4303401A99427B
:1041100000D170470A8842520231F8E72DE9F04198
:104120000C464978227B0129054640F01F81D4F8CE
:1041300010C0A6696169664528BF664612BBB6B263
:10414000E2883346FFF7DBFFB5F85020237805F20D
:10415000024111FA82F202EBC3021680227835F88E
:10416000223023F4E04323F040031B041B0C83F0B4
:10417000300343F4004343F0800325F8223000204D
:10418000BDE8F081E278236A2778022A40F0D780E0
:104190009C4530F8272080F0BB8022F4E04222F0DA
:1041A00070021204120C42F4014242F0800220F824
:1041B000272030F82780B0F850209B1B18F04008CB
:1041C0002362B3B253D000F2064C1CFA82F222F8FA
:1041D00037306289FFF793FF226A2369616960784B
:1041E0009A428CBF931B0023314488BF324623621E
:1041F000616193B270BBB5F85060207805F2024758
:1042000017FA86F63E2A06EBC0060ED95009D706E5
:10421000AA4A08BF00F1FF3042EA802292B23280FF
:1042200022892846FFF76BFF98E75AB9328822F4B3
:10423000F8421204120C328032886FEA42426FEA6E
:104240005242EBE75008D20748BF0130800280B2EB
:104250003080E5E70128E3D1B5F85020207805F259
:10426000024616FA82F202EBC0021380D8E700F28F
:10427000024C1CFA82F222F837302289FFF73FFF06
:10428000226A2369616960789A428CBF931B434616
:10429000314488BF32462362616193B258BBB5F89E
:1042A0005060207805F2064717FA86F63E2A06EB9C
:1042B000C0060BD95009D706804A08BF00F1FF306D
:1042C00042EA802292B232806289AAE75AB93288E1
:1042D00022F4F8421204120C328032886FEA424211
:1042E0006FEA5242EEE75008D20748BF0130800221
:1042F00080B23080E8E70128E6D1B5F85020207878
:1043000005F2064616FA82F202EBC0021380DBE7E2
:1043100022F4E24222F070021204120C42F4004233
:1043200042F0800220F82720B0F8502000F2024628
:1043300016FA82F29BB222F83730228972E730F8FF
:1043400027209B1B12F0400F2362B0F85020B3B21D
:1043500007D000F2064616FA82F222F83730628958
:1043600060E700F2024616FA82F2E4E77ABBA3693C
:1043700021698B4288BF5A1AA26188BF0B46B5F8E3
:104380005010227805F2064010FA81F13E2B01EB25
:10439000C20100F2CB80002B40F0D1800B8823F4C7
:1043A000F8431B041B0C0B800B886FEA43436FEA36
:1043B00053439BB20B80227835F8223023F480439C
:1043C00023F070031B041B0C83F44053D1E6E37805
:1043D000022B75D100294BD1B0F85010237800F290
:1043E000024212FA81F101EBC30123693E2B22D96B
:1043F0005809324ADF0608BF00F1FF3042EA802246
:1044000092B20A80B5F85010227805F2064010FAF0
:1044100081F13E2B01EBC20120D8002B45D10B8846
:1044200023F4F8431B041B0C0B800B886FEA4343F7
:104430006FEA53431AE05BB90A8822F4F842120487
:10444000120C0A800A886FEA42426FEA5242D7E7AA
:104450005A08DE0748BF01329202D1E75A09D8064E
:10446000164B08BF02F1FF3243EA82239BB20B8056
:10447000E369002B9FD0227835F8221044F24003E4
:1044800003EA01008B4301D0002894D135F8223093
:1044900023F4E04323F070031B041B0C43F400439C
:1044A00043F0C00325F8223085E75A08DB0748BFF0
:1044B0000132920292B20A80DAE700BF0080FFFF69
:1044C000012B44D1A369226993428ABF981A002024
:1044D0001346A06100297FF46EAFB5F85010227822
:1044E00005F2024010FA81F13E2B01EBC2010AD91C
:1044F0005809184ADF0608BF00F1FF3042EA80225F
:1045000092B20A803BE75BB90A8822F4F8421204AF
:10451000120C0A800A886FEA42426FEA5242EFE7C1
:104520005A08DE0748BF01329202E9E75A09D80665
:10453000084B08BF02F1FF3243EA822339E75A08E9
:10454000DB0748BF0132920292B20A8033E70120B2
:1045500016E600BF0080FFFF02F58062F0B5104450
:104560005D080C462E46471A3A19023436B9DB0765
:1045700044BF30F8153001F81530F0BD128892B202
:1045800004F8022C120A04F8012C013EECE710B5E5
:10459000D0F8BC4284B1D0F8C0325BB194F80002CC
:1045A000FF2807D09B6894F8012221469847FF23F3
:1045B00084F80032002000E0032010BD4323038074
:1045C000004870474800002043230380004870479C
:1045D0008C0000204323038000487047DC0000204B
:1045E0000A23038000487047D000002038B5D0F877
:1045F000BC4205466CB100F03FFFD5F8C032C4F8AC
:104600000C02DB68D4F8040204F50371984700201B
:1046100038BD0320FCE7F8B5D0F8BC6205460A4671
:1046200036B3142303FB01039C6994B1D0F8C47220
:104630004FF0280C0CFB0177BF6BB4FBF7FC07FBBA
:104640001C4434B99C612246234600F003FF2046F7
:104650000DE0D5F8C0321C690027C6F81472002C92
:10466000F5D0D6F8080206F50471A0473846F8BD23
:104670000320FCE72DE9F743D0F8BC724FF00008A7
:1046800005460E468DF80580ADF80680002F6AD0ED
:104690000A7812F060042BD0202C60D1CC884B78A3
:1046A000FCB1120614D5D0F8C0223946D2F80890D1
:1046B00018462246C847F288072A28BF07223946EB
:1046C000284600F091FC4446204603B0BDE8F08344
:1046D00087F8003287F801422246394600F099FCFB
:1046E000F1E7D0F8C022184695682246A847EBE7C4
:1046F0004F780B2F33D801A353F827F02D4700082C
:10470000C94600085F4700085F4700085F47000888
:104710005F4700085F4700085F4700085F470008E1
:104720005F470008434700085747000890F89C324D
:10473000032B14D102220DF1060100F055FC3C467A
:10474000C2E790F89C32032B09D101220DF105013B
:1047500000F04AFCB8E790F89C32032BB4D0314605
:10476000284600F01AFC0324AEE700BF38B5044623
:104770000025812100F037FE01212587204600F029
:1047800032FEA4F878518221204600F02CFED4F8A5
:10479000BC32E5644BB1D4F8C0325B689847D4F8BA
:1047A000BC0200F095FEC4F8BC52002038BDF8B53C
:1047B00004464FF4077000F087FE0546C4F8BC02BB
:1047C00010B902263046F8BD237C8BBB4FF4007332
:1047D000022281212046012600F0F9FD26874FF4B0
:1047E000007331460222204600F0F1FD1023A4F8A8
:1047F0007861A4F84E30032208238221204600F07D
:10480000E6FDD4F8C0320121A4F84C1000271B6843
:104810009847C5F81472C5F81872267C01218EB924
:10482000D5F804224FF40073204600F01CFEC9E7BF
:104830004023022281212046012600F0C8FD268760
:104840004023CEE7D5F804224023204600F00BFE9B
:104850003E46B7E719B1C0F8C012002070470320E8
:104860007047D0F8BC322BB1C3F80812C3F810223D
:104870000020704703207047D0F8BC321BB1C3F84A
:1048800004120020704703207047D0F8BC2210B5F6
:104890007AB1D2F8144201236CB9C2F81432D2F8BA
:1048A0001032C362D2F80822812100F0D3FD2046E5
:1048B00010BD0320FCE71846FAE7D0F8BC2210B57B
:1048C00082B1047CD2F8042234B94FF40073012180
:1048D00000F0C9FD204610BD4023012100F0C3FDBA
:1048E0000024F7E70324F5E778B10023C0F8B832D5
:1048F000C0F8C032C0F8CC3209B1C0F8B4120123FC
:1049000080F89C32027000F015BD0320704737B567
:1049100000250446ADF8065059B1CB6AC0F8B8126C
:104920004BB10DF106009847C4F8CC02284603B0FD
:1049300030BD0320FBE71846F9E700F03FBDD0F893
:10494000B8320BB11B6818470320704708B5D0F880
:10495000B8320BB15B689847002008BD38B50446F3
:1049600000F2AA25284600F00DFB012394F8AA12B4
:10497000C4F89432B4F8B032C4F8983201F01F038E
:10498000012B08D0022B0CD08BB929462046BDE85C
:10499000384000F0F5B829462046BDE8384000F020
:1049A0003BBA29462046BDE8384000F05BBA2046B5
:1049B00001F08001BDE8384000F01EBD70B504462E
:1049C0001546F9B9D0F89432032B0CD1D0E95732FF
:1049D00093420AD99B1A9A42C0F85C3128BF1A4602
:1049E000294600F023FB002070BD90F89C32032B79
:1049F00004D1D0F8B8321B6903B19847204600F0C3
:104A00001DFBF0E790F89C32032BECD1D0F8B832C4
:104A10009B69002BE7D0BDE87040184773B504468A
:104A2000164600293FD1D0F89422022A0FD1D0E9AE
:104A30000752954215D9AA1A0191C261314600F078
:104A4000E0FA019B1A461946204600F00CFD94F846
:104A5000A032012B02D1002384F8A032002002B042
:104A600070BD0ED1826995420BD8D0F89852AA42F7
:104A700007D20A46019100F0C4FA019BC4F89832AB
:104A8000E0E794F89C32032B05D1D4F8B832DB6808
:104A90000BB1204698478021204600F0ADFC20460F
:104AA00000F0D7FAD3E790F89C32032BD6D1D0F898
:104AB000B8325B69002BD1D002B0BDE87040184716
:104AC000012370B580F89C32D0F8B832002104463A
:104AD000C0F894124160C0F8A412DBB1D0F8BC2237
:104AE00012B15B6803B1984700221146402540236C
:104AF0000126204600F06BFCA4F86461C4F8605104
:104B00002B4600228021204600F061FCA68425620D
:104B1000002070BD0320FCE701740020704790F86E
:104B20009C32DBB280F89D32042380F89C32002056
:104B3000704790F89C32042B02BF90F89D32DBB294
:104B400080F89C3200207047D0F8B82208B542B1F6
:104B500090F89C32032B02D1D36923B198470020EF
:104B600000E0032008BD1846FCE710B5802104468C
:104B700000F042FC20460021BDE8104000F03CBCA3
:104B8000F7B50D7805F06005202D04460E4614D0CB
:104B9000402D12D0002D40F009814F78092F00F2EE
:104BA0000581DFE817F00A012C010301220103014E
:104BB0008A0013000301F200A600D4F8B8329B6803
:104BC0003146204603B0BDE8F04018470023ADF859
:104BD00006304B881A0A013A0E2A0DD8DFE802F097
:104BE000122B380C0C58620C0C0C0C0C0C0C080022
:104BF000D0F8B432DB6943B92046FFF7B6FF284648
:104C000003B0F0BDD0F8B4321B68207C0DF1060172
:104C10009847F288002A00F0EE80BDF80630002B9D
:104C2000EAD09A4228BF1A46ADF80620014620462F
:104C300000F0DAF9E3E7027CD0F8B83232B99B6AC7
:104C40000DF10600984702234370E2E7DB6AF7E7BD
:104C5000DBB2052BD0D8DFE803F003070B0F1317E7
:104C6000D0F8B4325B68C6E7D0F8B4329B68C2E7CC
:104C7000D0F8B432DB68BEE7D0F8B4321B69BAE7CB
:104C8000D0F8B4325B69B6E7D0F8B4329B69B2E7CA
:104C9000037C002BB0D1D0F8B8320DF106005B6B6D
:104CA0009847B6E7037C002BA6D1D0F8B8320DF1B7
:104CB00006001B6B98470723C6E78B88002B9BD108
:104CC000CB88002B98D14E887F2E95D890F89C32B7
:104CD000032B91D0F1B280F89E1200F0B2FB204677
:104CE00000F0ACF91EB1022384F89C3287E701235F
:104CF000FAE78E78474F012E3E7003D9FFF735FF54
:104D000003257CE790F89C32022BDAB208D0032A04
:104D100015D0FFF72AFF39782046FFF717FEEFE797
:104D2000002E68D001214160FFF709FE05462046AC
:104D3000002D7FF462AF00F081F90323D4E75EB960
:104D4000022380F89C3246603146FFF7FFFD204683
:104D500000F074F9354652E7416801294BD0C9B2D9
:104D6000FFF7F4FD397861602046FFF7E8FD06465D
:104D7000002840D02046FFF7F8FE21792046FFF7B3
:104D8000E5FD022384F89C32E4E7CA88012A7FF417
:104D900033AF90F89C120229CBB205D833B101464B
:104DA000002341F8083F42E7032B04D02046FFF7D9
:104DB000DCFE002523E7011D39E790F89C32013B1A
:104DC000022BF3D8CB88022B7FF416AF0123C360EC
:104DD000D0F8A4320BB10323C360022204F10C010A
:104DE000204600F001F93D4609E74B88012B7FF48E
:104DF00006AFC4F8A432204600F020F9FFE690F890
:104E00009C32013B022BD1D84B88012B7FF4F7AEAB
:104E10000023EEE79002002070B50B7803F06002EB
:104E2000402A04460E4601D05B0616D494F89C3204
:104E3000013B022B11D83379012B0ED8D4F8B832AC
:104E400031469B6820469847F38805461BB910B940
:104E5000204600F0F3F8284670BD2046FFF785FE97
:104E60000025F8E770B50B7803F06003202B0446AB
:104E70000D4653D0402B51D073BB6B788A8809798B
:104E8000012B3AD0032B20D033BB90F89C32022B5D
:104E9000D8B254D003281FD101F00F0312F0800FB5
:104EA0004FF0140202FB034358D09B8CA3B101F0D6
:104EB0007F05013505EB850504EB850511F07F03C2
:104EC00058D12B600222294644E090F89C32022BF4
:104ED000DAB22BD0032A03D02046FFF746FE0AE0C1
:104EE0006B882BB94A0603D0EB880BB900F084FA23
:104EF000204600F0A3F8002070BD90F89C32022BF1
:104F0000DAB213D0032AE7D16B88002BF3D14E0617
:104F100001D000F07AFA204600F090F8D4F8B832C8
:104F2000294620469B68BDE8704018474B06D3D001
:104F300000F062FA8021204600F05EFADBE74906C5
:104F4000CAD113064CBF04F1140104F5AA71002361
:104F50000B600222204600F047F8CCE7B3F864313A
:104F6000002BB9D001F07F05142303FB054505F59F
:104F7000AA75A3E7204600F051FA08B10123A0E783
:104F800028609FE70B7803704B7843704B88438011
:104F90008B888380CB88C380704710B580210446FE
:104FA00000F02AFA20460021BDE8104000F024BAA3
:104FB00030B588B10024013823460134055D002D49
:104FC000FAD1DBB201335B0013800B7003234B700B
:104FD000022310F8012F02B930BDCA545A1CD2B2B4
:104FE00002338D54DBB2F4E710B502241346C0E956
:104FF0000622C0F894420A46002100F02BFA002055
:1050000010BD08B513460A46002100F023FA00201F
:1050100008BD10B503241346C0E95622C0F89442D7
:105020000A46002100F01FFA002010BD08B5134603
:105030000A46002100F017FA002008BD08B5042236
:105040000023C0F8942219461A4600F003FA002003
:1050500008BD08B505220023C0F8942219461A4657
:1050600000F001FA002008BD08B50F490F480022E2
:10507000FFF73AFC08B1FCF7EFF90D490B48FFF7D1
:1050800046FC08B1FCF7E8F90A490848FFF7E2FBDB
:1050900008B1FCF7E1F90548FFF74FFC18B1BDE88E
:1050A0000840FCF7D9B908BD340100209402002063
:1050B00010000020200100200020704700207047D1
:1050C0000020704710B5054C01462046FFF7D4FB81
:1050D0002046FFF7F2FB002010BD00BF9402002025
:1050E00010B5064C064900222046FFF7BAFB0549D9
:1050F0002046FFF7C1FB002010BD00BF9402002036
:10510000640900206405002010B5094CD4F8BC32B5
:10511000D3F814320A4643B901462046FFF7A1FBF3
:105120002046BDE81040FFF7B0BB012010BD00BF16
:1051300094020020122301480B8070475401002084
:10514000042301480B80704768010020002370B5DC
:105150004D1C1E46040FB0F1204F34BF303437349D
:1051600001F8134005F813600133DCB2A2424FEAA4
:105170000010EFD870BD00001A2310B50B800A4B49
:10518000D3F89005D3F8982580180AD0D3F8944521
:1051900006490822FFF7DAFF042210312046FFF704
:1051A000D5FF034810BD00BF0070FF1F6E01002037
:1051B0006C01002010B5044C04480A462146FFF754
:1051C000F7FE204610BD00BF640D0020DE61000820
:1051D00010B5044C04480A462146FFF7E9FE204674
:1051E00010BD00BF640D0020F161000810B5044C33
:1051F00004480A462146FFF7DBFE204610BD00BFEB
:10520000640D00200762000810B5044C04480A46EB
:105210002146FFF7CDFE204610BD00BF640D0020E3
:105220001262000803289ABF014B185C03207047E4
:105230002062000810B5044692B04422002101A863
:1052400000F072F92268104B9A421AD14FF40053C1
:1052500001A80193FDF76EFE08B1FCF7FDF80B4BBA
:105260009A6D42F400029A659B6D002203F40003DC
:10527000009314201146009BFCF74CFA1420FCF715
:105280007BFA12B010BD00BF005C0040001002406D
:1052900000F52C71D0F8F002FFF760BB282303FB68
:1052A0000103D0F8F002D3F87C21FFF787BB282355
:1052B00003FB0103D0F8F002DA6BFFF7AFBBD0F8C5
:1052C000F002FFF741BC8368022B10B5044601D001
:1052D000FCF7C2F8D4F8F0020121FFF71DFCD4F866
:1052E000F002BDE81040FFF7EBBB000010B504462C
:1052F000D0F8F002FFF713FCA36923B1024A136947
:1053000043F00603136110BD00ED00E0836910B5A2
:10531000044633B1064A136923F006031361FBF711
:1053200067F9D4F8F002BDE81040FFF702BC00BFF7
:1053300000ED00E010B51F4A04461F480823C0E9ED
:1053400000230223C0F8F04283600361C4F8C40262
:105350000023C0E90533C0E90733FCF797FB08B128
:10536000FCF77AF800221146D4F8C4021823FDF79E
:105370000CFAD4F8C402582300228021FDF705FA64
:10538000D4F8C402C02300228121FDF7FEF9D4F82D
:10539000C4024FF4887300220121FDF7F6F9D4F816
:1053A000C4024FF4807300228221FDF7EEF9002041
:1053B00010BD00BF005C0040640F002008B5D0F8AD
:1053C000C402FCF7C1FBBDE80840FFF72BBF10B5D6
:1053D0001446D0F8C4021A462346FDF7CDF8BDE8BE
:1053E0001040FFF71FBF08B5D0F8C402FDF7FAF868
:1053F000BDE80840FFF716BF08B5D0F8C402FDF7B6
:105400005CF9BDE80840FFF70DBF08B5D0F8C4024D
:10541000FDF785F9BDE80840FFF704BF11F0800FE4
:10542000D0F8C4324FF028021DBF01F07F0101FB0C
:1054300002215B1802FB013114BF987891F86A01D0
:10544000704708B5D0F8C402FCF793FBBDE80840EC
:10545000FFF7E8BE08B5D0F8C402FDF70EF9BDE8C5
:105460000840FFF7DFBE08B5D0F8C402FDF7E7F843
:10547000BDE80840FFF7D6BED0F8C402FDF7F5B886
:1054800010B5044611B101290FD010BD836933B1A5
:10549000FBF7AEF80B4A136923F006031361D4F847
:1054A000F002BDE81040FFF744BBD0F8F002FFF770
:1054B00036FBA369002BE8D0024A136943F00603C8
:1054C0001361E2E700ED00E0004870475812002049
:1054D00070470000014B1868704700BF880100202A
:1054E00070B50D4D0D4C641BA4100026A64209D1C9
:1054F0000B4D0C4C00F0AAFC641BA4100026A64225
:1055000005D170BD55F8043B98470136EEE755F8D4
:10551000043B98470136F2E76062000860620008C9
:10552000606200086462000802440346934200D1AE
:10553000704703F8011BF9E70CB430B5174B0C1E8C
:105540001D689DB008DA8B232B604FF0FF301DB033
:10555000BDE8304002B070474FF40273ADF814302C
:1055600014BF04F1FF332346049307934FF6FF73F0
:1055700002900690ADF81630209A21AB02A9284679
:10558000019300F071F8431CBCBF8B232B60002CEF
:10559000DDD0029B00221A70D9E700BF88010020ED
:1055A000034611F8012B03F8012B002AF9D17047AB
:1055B0002DE9F0478E689E4282460C4690461F4673
:1055C00038D88A8912F4906F32D025680969A5EB22
:1055D0000109656905EB450505EBD57501334B44BC
:1055E0006D109D4238BF1D46530531D5294600F048
:1055F00063FB064650B90C23CAF80030A38943F078
:105600004003A3814FF0FF30BDE8F08721694A468F
:1056100000F0BEFAA38923F4906343F08003A381D2
:10562000266165614E44A5EB09052660A5603E46EE
:10563000BE4200D93E4620683246414600F0B6FAE6
:10564000A3689B1BA3602368334423600020DBE72F
:105650002A4600F0A5FB06460028E1D12169504604
:1056600000F0BEFAC7E700002DE9F04F98468B899D
:105670001B069DB007460D4614460ED50B6963B94F
:10568000402100F019FB2860286120B90C233B6001
:105690004FF0FF30D1E040236B61002309932023BA
:1056A0008DF82930CDF80C803023DFF8A8818DF8F3
:1056B0002A304FF0010923469A4613F8012B0AB10C
:1056C000252AF9D1BAEB040B0BD05B4622462946BA
:1056D0003846FFF76DFF013000F0AA80099A5A445E
:1056E00009929AF80030002B00F0A28000234FF0BE
:1056F000FF32CDE905230AF1010A049307938DF8DF
:1057000053301A935446052214F8011B5148FAF7F6
:105710008FFD049AD8B9D00644BF20238DF85330AA
:10572000110744BF2B238DF853309AF800302A2BF1
:1057300015D0079A544600204FF00A0C214611F864
:10574000013B303B092B4ED9B0B1079214E0A0EBDE
:10575000080309FA03F313430493A246D2E7039B19
:10576000191D1B680391002BBBBF5B4242F0020274
:1057700007930793B8BF049223782E2B0CD163783C
:105780002A2B35D1039B1A1D1B680392002BB8BF2F
:105790004FF0FF3302340593DFF8C8A021780322CD
:1057A0005046FAF745FD40B14023A0EB0A0003FA4A
:1057B00000F0049B03430134049314F8011B2648B2
:1057C0008DF828100622FAF733FD002838D0234B35
:1057D0001BBB039B073323F0070308330393099B89
:1057E0003344099367E70CFB02320C460120A5E71E
:1057F00000230134059319464FF00A0C204610F897
:10580000012B303A092A03D9002BC5D00591C3E7F3
:105810000CFB012104460123F0E703AB00932A4669
:105820000F4B04A93846AFF30080421C0646D6D180
:10583000AB895B063FF52CAF09981DB0BDE8F08F32
:1058400003AB00932A46064B04A9384600F07AF8C9
:10585000EBE700BF246200082E6200080000000091
:10586000B15500082A6200082DE9F047164699460E
:105870008A680B69DDF820809342B8BF1346336015
:1058800091F8432007460C460AB101333360236880
:10589000990642BF336802333360256815F0060568
:1058A00006D104F1190AE36832689B1AAB4226DC80
:1058B00094F84320131E226818BF012392062BD4AC
:1058C00004F1430249463846C04701301ED02368E0
:1058D000E568326803F00603042B08BFAD1AA3681D
:1058E00022690CBF25EAE57500259342C4BF9B1AC7
:1058F000ED1800261A34B5421AD1002008E0012321
:10590000524649463846C047013003D14FF0FF3078
:10591000BDE8F0870135C6E7E1185A1C302081F850
:105920004300224494F8451082F843100233C7E73D
:105930000123224649463846C0470130E6D00136A9
:10594000D9E700002DE9FF470F7E0C9D782F914687
:1059500080460C469A4601F1430207D8622F0AD8C6
:10596000002F00F0D880582F00F0A38004F14205EA
:1059700084F842703AE0A7F16303152BF6D801A131
:1059800051F823F0DD590008F15900086D5900085D
:105990006D5900086D5900086D590008F15900084B
:1059A0006D5900086D5900086D5900086D590008BF
:1059B000FD5A0008215A0008DF5A00086D590008F6
:1059C0006D5900081F5B00086D590008215A000836
:1059D0006D5900086D590008E75A00082B681A1D18
:1059E0001B682A6004F1420584F842300123A3E0D9
:1059F00020682968060601F104030AD50E682B60A9
:105A0000002E03DA2D23764284F843305E480A23C1
:105A100019E00E682B6010F0400F18BF36B2EFE7A8
:105A20002B682068191D2960010601D51E6802E057
:105A30004606FBD51E8854486F2F0CBF08230A2347
:105A4000002184F843106568A560002DA2BF21687D
:105A500021F0040121600EB9002D4DD01546B6FB92
:105A6000F3F103FB1167C75D05F8017D3746BB42C3
:105A70000E46F4D9082B0BD12368DE0708D523691D
:105A800061689942DEBF302305F8013C05F1FF351E
:105A9000521B2261CDF800A04B4603AA2146404686
:105AA000FFF7E2FE01304CD14FF0FF3004B0BDE80B
:105AB000F087354881F845702968236851F8046BF0
:105AC00029601D0614D5DF0744BF43F0200323607F
:105AD0001EB9236823F0200323601023B0E7236856
